:020000040800F2
:1000000000000220B52200089D240008A124000859
:10001000A5240008A9240008AD2400080000000061
:10002000000000000000000000000000B1240008F3
:10003000B524000800000000B9240008BD24000811
:1000400005230008052300080523000805230008F0
:1000500005230008052300080523000805230008E0
:1000600005230008052300080523000805230008D0
:1000700005230008052300080523000805230008C0
:1000800005230008052300080523000805230008B0
:1000900005230008052300080523000805230008A0
:1000A0000523000805230008052300080523000890
:1000B0000523000805230008052300080523000880
:1000C0000523000805230008052300080523000870
:1000D0000523000805230008052300080523000860
:1000E0000523000805230008052300080523000850
:1000F0000523000805230008052300080523000840
:10010000052300080523000805230008052300082F
:10011000052300080523000805230008052300081F
:10012000052300080523000805230008052300080F
:10013000052300080000000000000000052300085F
:1001400005230008052300080523000805230008EF
:1001500005230008052300080523000805230008DF
:1001600005230008052300080523000805230008CF
:10017000052300080523000800000000000000001F
:08018000052300080523000817
:1001C00010B5054C237833B9044B13B10448AFF391
:1001D00000800123237010BDB8090020000000003A
:1001E0005897000808B5034B1BB103490348AFF308
:1001F000008008BD00000000BC09002058970008DE
:10020000A2EB0300704700BF02780B78012A28BFD9
:100210009A42F5D16DE9044540EA0104CDE902674F
:100220006FF0000C4FEA447212B380EA010414F03C
:10023000070F6AD100F0070420F0070004F003055F
:1002400021F007014FEAC505F0E8042314F0040F7C
:10025000F1E804670CFA05F462EA040266EA0406AF
:100260000AD063EA0403624667EA0407664603E0CD
:10027000F0E80423F1E8046782FA4CF582EA060408
:10028000A4FA8CF46CBB83FA4CF583EA0705A5FA53
:100290008CF595B950E9022351E9026782FA4CF5D1
:1002A00082EA0604A4FA8CF483FA4CF583EA070583
:1002B000A5FA8CF52543DBD09CB92DBAB5FA85F4A7
:1002C00024F0070427FA04F1DDE9026723FA04F3B6
:1002D00003F0FF0001F0FF01FDE80445A0EB010081
:1002E000704724BAB4FA84F424F0070426FA04F11F
:1002F000DDE9026722FA04F202F0FF0001F0FF01DB
:10030000FDE80445A0EB0100704714F0030F3CD159
:1003100010F0030428D150F8082B51F8083B82FA5A
:100320004CF582EA0305A5FA8CF55DB950F8042C6A
:1003300051F8043C82FA4CF582EA0305A5FA8CF5E3
:10034000002DE8D02DBAB5FA85F424F0070423FA7D
:1003500004F122FA04F202F0FF0001F0FF01FDE8CF
:100360000445A0EB010070474FEAC40420F00300ED
:1003700050F8082B21F0030151F8083B0CFA04F463
:1003800062EA040263EA0403C9E710F003041AD026
:10039000A1EB040120F00300E40750F8042B06D081
:1003A0000FD28B785FFAA2F4E41A06D12BB1CB7886
:1003B0005FFAB2F4E41A00D11BB920465DF8104B85
:1003C000704701F1040150F8042BCC0721F0030120
:1003D00051F8043B48D824D222F07F4482FA4CF5ED
:1003E00094EA1325A5FA8CF50AD165B951F8043BB6
:1003F00084EA0204B4EB036F0ED150F8042BEBE750
:100400004FEA132355E035F07F454DD10878FDE8DC
:100410000445C0F1000070474FEA126203F0FF0389
:1004200047E002EA1C4482FA4CF594EA1345A5FA27
:100430008CF50AD165B951F8043B84EA0204B4EBA7
:10044000034F0CD150F8042BEBE74FEA134330E095
:1004500015EA1C4528D10B884FEA124229E04FEAE1
:10046000124203EA1C4324E002F0FF0482FA4CF536
:1004700094EA1365A5FA8CF50AD165B951F8043BE5
:1004800084EA0204B4EB032F09D150F8042BEBE704
:100490004FEA13630DE015F0FF0F05D10B684FEA2B
:1004A000122223F07F4304E04FF00000FDE80445F2
:1004B000704712BA1BBA82FA4CF482EA0304A4FA17
:1004C0008CF5B5FA85F402FA04F203FA04F34FEA64
:1004D0001260FDE80445A0EB1360704700000000C7
:1004E000000000000000000000000000000000000C
:1004F00000000000000000000000000000000000FC
:1005000090F800F06DE9024520F007016FF0000C53
:1005100010F0070491F820F040F049804FF00004FB
:100520006FF00700D1E9002391F840F000F10800D6
:1005300082FA4CF2A4FA8CF283FA4CF3A2FA8CF30E
:100540004BBBD1E9022382FA4CF200F10800A4FA75
:100550008CF283FA4CF3A2FA8CF3E3B9D1E90423C9
:1005600082FA4CF200F10800A4FA8CF283FA4CF300
:10057000A2FA8CF37BB9D1E9062301F1200182FABA
:100580004CF200F10800A4FA8CF283FA4CF3A2FAC0
:100590008CF3002BC6D0002A04BF04301A4612BACE
:1005A000B2FA82F2FDE8024500EBD2007047D1E9D1
:1005B000002304F00305C4F100004FEAC50514F060
:1005C000040F91F840F00CFA05F562EA05021CBF31
:1005D00063EA050362464FF00004A9E7000000004B
:1005E00001F0FF01102A2BDB10F0070F08D010F8E4
:1005F000013B013A8B422DD010F0070F42B3F6D1E8
:10060000F0B441EA012141EA014122F007047FF000
:1006100000070023F0E80256083C85EA010586EA57
:10062000010685FA47F5A3FA87F586FA47F6A5FA93
:1006300087F68EB9EED1F0BC01F0FF0102F007029F
:1006400032B110F8013B013A83EA010313B1F8D14A
:100650000020704701387047002D06BF354603382B
:10066000073815F0010F07D1013015F4807F02BF64
:10067000013015F4C03F0130F0BC0138704700BFB5
:10068000844641EA000313F003036DD1403A41D39D
:1006900051F8043B40F8043B51F8043B40F8043B5C
:1006A00051F8043B40F8043B51F8043B40F8043B4C
:1006B00051F8043B40F8043B51F8043B40F8043B3C
:1006C00051F8043B40F8043B51F8043B40F8043B2C
:1006D00051F8043B40F8043B51F8043B40F8043B1C
:1006E00051F8043B40F8043B51F8043B40F8043B0C
:1006F00051F8043B40F8043B51F8043B40F8043BFC
:1007000051F8043B40F8043B51F8043B40F8043BEB
:10071000403ABDD2303211D351F8043B40F8043B8B
:1007200051F8043B40F8043B51F8043B40F8043BCB
:1007300051F8043B40F8043B103AEDD20C3205D39B
:1007400051F8043B40F8043B043AF9D2043208D093
:10075000D2071CBF11F8013B00F8013B01D30B8805
:1007600003806046704700BF082A13D38B078DD0E3
:1007700010F003038AD0C3F10403D21ADB071CBFB5
:1007800011F8013B00F8013B80D331F8023B20F81F
:10079000023B7BE7043AD9D3013A11F8013B00F858
:1007A000013BF9D20B7803704B7843708B788370E0
:1007B0006046704781F0004102E000BF83F00043D3
:1007C00030B54FEA41044FEA430594EA050F08BFEC
:1007D00090EA020F1FBF54EA000C55EA020C7FEAB0
:1007E000645C7FEA655C00F0E2804FEA5454D4EB2D
:1007F0005555B8BF6D420CDD2C4480EA020281EAF7
:10080000030382EA000083EA010180EA020281EA2E
:100810000303362D88BF30BD11F0004F4FEA013180
:100820004FF4801C4CEA113102D0404261EB41018F
:1008300013F0004F4FEA03334CEA133302D0524215
:1008400063EB430394EA050F00F0A780A4F10104D1
:10085000D5F1200E0DDB02FA0EFC22FA05F280180B
:1008600041F1000103FA0EF2801843FA05F35941F1
:100870000EE0A5F120050EF1200E012A03FA0EFC70
:1008800028BF4CF0020C43FA05F3C01851EBE3719A
:1008900001F0004507D54FF0000EDCF1000C7EEBB7
:1008A00000006EEB0101B1F5801F1BD3B1F5001FF5
:1008B0000CD349085FEA30004FEA3C0C04F1010414
:1008C0004FEA445212F5800F80F09A80BCF1004F3D
:1008D00008BF5FEA500C50F1000041EB045141EABF
:1008E000050130BD5FEA4C0C404141EB0101013C88
:1008F00028BFB1F5801FE9D291F0000F04BF014677
:100900000020B1FA81F308BF2033A3F10B03B3F148
:1009100020020CDA0C3208DD02F1140CC2F10C02D8
:1009200001FA0CF021FA02F10CE002F11402D8BF36
:10093000C2F1200C01FA02F120FA0CFCDCBF41EA02
:100940000C019040E41AA2BF01EB0451294330BDD1
:100950006FEA04041F3C1CDA0C340EDC04F11404AE
:10096000C4F1200220FA04F001FA02F340EA030085
:1009700021FA04F345EA030130BDC4F10C04C4F1CB
:10098000200220FA02F001FA04F340EA03002946AB
:1009900030BD21FA04F0294630BD94F0000F83F4F5
:1009A000801306BF81F480110134013D4EE77FEAD8
:1009B000645C18BF7FEA655C29D094EA050F08BF24
:1009C00090EA020F05D054EA000C04BF1946104605
:1009D00030BD91EA030F1EBF0021002030BD5FEA49
:1009E000545C05D14000494128BF41F0004130BD71
:1009F00014F580043CBF01F5801130BD01F00045C5
:100A000045F0FE4141F470014FF0000030BD7FEA37
:100A1000645C1ABF194610467FEA655C1CBF0B4632
:100A2000024650EA013406BF52EA033591EA030F49
:100A300041F4002130BD00BF90F0000F04BF002141
:100A4000704730B54FF4806404F132044FF0000574
:100A50004FF0000150E700BF90F0000F04BF0021ED
:100A6000704730B54FF4806404F1320410F0004553
:100A700048BF40424FF000013EE700BF42004FEA4E
:100A8000E2014FEA31014FEA02701FBF12F07F43CB
:100A900093F07F4F81F06051704732F07F4208BF82
:100AA000704793F07F4F04BF41F40021704730B589
:100AB0004FF4607401F0004521F000411CE700BFD5
:100AC00050EA010208BF704730B54FF000050AE058
:100AD00050EA010208BF704730B511F0004502D559
:100AE000404261EB41014FF4806404F132045FEA5B
:100AF000915C3FF4D8AE4FF003025FEADC0C18BF04
:100B000003325FEADC0C18BF033202EBDC02C2F1F5
:100B1000200300FA03FC20FA02F001FA03FE40EA87
:100B20000E0021FA02F11444BDE600BF70B54FF08B
:100B3000FF0C4CF4E06C1CEA11541DBF1CEA135569
:100B400094EA0C0F95EA0C0F00F0DEF82C4481EAD1
:100B5000030621EA4C5123EA4C5350EA013518BFF1
:100B600052EA033541F4801143F4801338D0A0FBDE
:100B700002CE4FF00005E1FB02E506F00042E0FB8B
:100B800003E54FF00006E1FB03569CF0000F18BF91
:100B90004EF0010EA4F1FF04B6F5007F64F5407439
:100BA00004D25FEA4E0E6D4146EB060642EAC621CC
:100BB00041EA55514FEAC52040EA5E504FEACE2E39
:100BC000B4F1FD0C88BFBCF5E06F1ED8BEF1004F3C
:100BD00008BF5FEA500E50F1000041EB045170BDB8
:100BE00006F0004646EA010140EA020081EA0301FC
:100BF000B4EB5C04C2BFD4EB0C0541EA045170BDF8
:100C000041F480114FF0000E013C00F3AB8014F171
:100C1000360FDEBF002001F0004170BDC4F10004BA
:100C2000203C35DA0C341BDC04F11404C4F120053B
:100C300000FA05F320FA04F001FA05F240EA020096
:100C400001F0004221F0004110EBD37021FA04F6CC
:100C500042EB06015EEA430E08BF20EAD37070BD86
:100C6000C4F10C04C4F1200500FA04F320FA05F0E5
:100C700001FA04F240EA020001F0004110EBD370E7
:100C800041F100015EEA430E08BF20EAD37070BD57
:100C9000C4F1200500FA05F24EEA020E20FA04F330
:100CA00001FA05F243EA020321FA04F001F00041DF
:100CB00021FA04F220EA020000EBD3705EEA430E50
:100CC00008BF20EAD37070BD94F0000F0FD101F07F
:100CD0000046400041EB010111F4801F08BF013CB8
:100CE000F7D041EA060195F0000F18BF704703F0F6
:100CF0000046520043EB030313F4801F08BF013D7D
:100D0000F7D043EA0603704794EA0C0F0CEA135538
:100D100018BF95EA0C0F0CD050EA410618BF52EAF2
:100D20004306D1D181EA030101F000414FF00000F8
:100D300070BD50EA410606BF1046194652EA430606
:100D400019D094EA0C0F02D150EA013613D195EA7A
:100D50000C0F05D152EA03361CBF104619460AD1C2
:100D600081EA030101F0004141F0FE4141F47001CC
:100D70004FF0000070BD41F0FE4141F4780170BDBC
:100D800070B54FF0FF0C4CF4E06C1CEA11541DBF21
:100D90001CEA135594EA0C0F95EA0C0F00F0A7F823
:100DA000A4EB050481EA030E52EA03354FEA013150
:100DB00000F088804FEA03334FF0805545EA131363
:100DC00043EA12634FEA022245EA111545EA10652B
:100DD0004FEA00260EF000419D4208BF964244F1C2
:100DE000FD0404F5407402D25B084FEA3202B61AE1
:100DF00065EB03055B084FEA32024FF480104FF4B5
:100E0000002CB6EB020E75EB030E22BFB61A754628
:100E100040EA0C005B084FEA3202B6EB020E75EBBB
:100E2000030E22BFB61A754640EA5C005B084FEA23
:100E30003202B6EB020E75EB030E22BFB61A7546F0
:100E400040EA9C005B084FEA3202B6EB020E75EBFB
:100E5000030E22BFB61A754640EADC0055EA060EBC
:100E600018D04FEA051545EA16754FEA06164FEAFF
:100E7000C30343EA52734FEAC2025FEA1C1CC0D1AB
:100E800011F4801F0BD141EA00014FF000004FF038
:100E9000004CB6E711F4801F04BF01430020B4F1F9
:100EA000FD0C88BFBCF5E06F3FF6AFAEB5EB030CB1
:100EB00004BFB6EB020C5FEA500C50F1000041EBAE
:100EC000045170BD0EF0004E4EEA113114EB5C047B
:100ED000C2BFD4EB0C0541EA045170BD41F480114E
:100EE0004FF0000E013C90E645EA060E8DE60CEA56
:100EF000135594EA0C0F08BF95EA0C0F3FF43BAF73
:100F000094EA0C0F0AD150EA01347FF434AF95EA29
:100F10000C0F7FF425AF104619462CE795EA0C0F0D
:100F200006D152EA03353FF4FDAE1046194622E7DA
:100F300050EA410618BF52EA43067FF4C5AE50EAB4
:100F400041047FF40DAF52EA43057FF4EBAE12E7A4
:100F50004FF0FF3C06E000BF4FF0010C02E000BF85
:100F60004FF0010C4DF804CD4FEA410C7FEA6C5C68
:100F70004FEA430C18BF7FEA6C5C1BD001B050EA0B
:100F8000410C0CBF52EA430C91EA030F02BF90EAF6
:100F9000020F0020704710F1000F91EA030F58BFB5
:100FA000994208BF90422CBFD8176FEAE37040F017
:100FB000010070474FEA410C7FEA6C5C02D150EAB5
:100FC000013C07D14FEA430C7FEA6C5CD6D152EA70
:100FD000033CD3D05DF8040B704700BF8446104635
:100FE00062468C461946634600E000BF01B5FFF734
:100FF000B7FF002848BF10F1000F01BD4DF808ED04
:10100000FFF7F4FF0CBF012000205DF808FB00BFD4
:101010004DF808EDFFF7EAFF34BF012000205DF82E
:1010200008FB00BF4DF808EDFFF7E0FF94BF01207B
:1010300000205DF808FB00BF4DF808EDFFF7CEFF7C
:1010400094BF012000205DF808FB00BF4DF808EDBB
:10105000FFF7C4FF34BF012000205DF808FB00BF8C
:101060004FEA410C7FEA6C5C02D150EA013C0AD1A4
:101070004FEA430C7FEA6C5C02D152EA033C02D196
:101080004FF0000070474FF0010070474FEA4102F7
:1010900012F5001215D211D56FF47873B3EB6252CA
:1010A00012D94FEAC12343F0004343EA505311F0F1
:1010B000004F23FA02F018BF404270474FF0000083
:1010C000704750EA013005D111F0004008BF6FF0C1
:1010D000004070474FF00000704700BF53B94AB955
:1010E000002908BF00281CBF4FF0FF314FF0FF3030
:1010F00001F0DEB8ADF1080C6DE904CE00F006F8A1
:10110000DDF804E0DDE9022304B070472DE9F04783
:10111000089D04468E46002B4DD18A42944669D9DB
:10112000B2FA82F252B101FA02F3C2F1200120FABE
:1011300001F10CFA02FC41EA030E94404FEA1C480C
:10114000210CBEFBF8F61FFA8CF708FB16E341EA08
:10115000034306FB07F199420AD91CEB030306F18E
:10116000FF3080F01F81994240F21C81023E6344AF
:101170005B1AA4B2B3FBF8F008FB103344EA034453
:1011800000FB07F7A7420AD91CEB040400F1FF3368
:1011900080F00A81A74240F207816444023840EAA5
:1011A0000640E41B00261DB1D4400023C5E90043DE
:1011B0003146BDE8F0878B4209D9002D00F0EF8061
:1011C0000026C5E9000130463146BDE8F087B3FA94
:1011D00083F6002E4AD18B4202D3824200F2F9807C
:1011E000841A61EB030301209E46002DE0D0C5E97F
:1011F000004EDDE702B9FFDEB2FA82F2002A40F0CB
:101200009280A1EB0C014FEA1C471FFA8CFE0126CD
:10121000200CB1FBF7F307FB131140EA01410EFB71
:1012200003F0884208D91CEB010103F1FF3802D218
:10123000884200F2CB804346091AA4B2B1FBF7F012
:1012400007FB101144EA01440EFB00FEA64508D935
:101250001CEB040400F1FF3102D2A64500F2BB8072
:101260000846A4EB0E0440EA03409CE7C6F12007C1
:10127000B34022FA07FC4CEA030C20FA07F401FA07
:1012800006F31C43F9404FEA1C4900FA06F3B1FB90
:10129000F9F8200C1FFA8CFE09FB181140EA0141F5
:1012A00008FB0EF0884202FA06F20BD91CEB010192
:1012B00008F1FF3A80F08880884240F28580A8F1EA
:1012C00002086144091AA4B2B1FBF9F009FB10113C
:1012D00044EA014100FB0EFE8E4508D91CEB0101DA
:1012E00000F1FF346CD28E456AD90238614440EA7D
:1012F0000840A0FB0294A1EB0E01A142C846A646FD
:1013000056D353D05DB1B3EB080261EB0E0101FA85
:1013100007F722FA06F3F1401F43C5E900710026E2
:101320003146BDE8F087C2F12003D8400CFA02FC38
:1013300021FA03F3914001434FEA1C471FFA8CFE48
:10134000B3FBF7F007FB10360B0C43EA064300FB38
:101350000EF69E4204FA02F408D91CEB030300F1D6
:10136000FF382FD29E422DD9023863449B1B89B28D
:10137000B3FBF7F607FB163341EA034106FB0EF316
:101380008B4208D91CEB010106F1FF3816D28B42C3
:1013900014D9023E6144C91A46EA004638E72E468F
:1013A000284605E70646E3E61846F8E64B45A9D287
:1013B000B9EB020864EB0C0E0138A3E74646EAE7F6
:1013C000204694E74046D1E7D0467BE7023B6144A4
:1013D00032E7304609E76444023842E703685A00BE
:1013E0004CBF43F0004323F000431844704700BF54
:1013F0002DE9F84329B34F1E044615463E464FF0EB
:10140000000808EB060101EBD171491004EBC1099A
:101410004846FFF7E3FF0346C80008308F422044E8
:1014200009D0AB4209D8FFF7D9FF0138A8420AD248
:1014300001F10108E5E7AB4205D9884501D04E1E10
:10144000DFE74FF000094846BDE8F883012807D0E0
:10145000022807D0044B00280CBF18460020704714
:101460000248704702487047251B0008291B0008E6
:101470002D1B000830B5234B83B004468D1E3BB3B3
:1014800001A92846AFF30080E8B101992A46FFF789
:10149000AFFF0146B8B1FFF7A1FF4B68A064012B75
:1014A0002CD0002B01F1040024DBFFF797FF002371
:1014B000C4E913030368002B11DBFFF78FFF2061E2
:1014C000002003B030BD00230920236103B030BDEC
:1014D0000D4B0E49C91AC91018460191D6E7C3F33E
:1014E0000360FFF7B3FF0028206114BF002009202C
:1014F00003B030BD0123C4E91303DBE700232361FC
:101500000520DEE700000000189D0008109E00087E
:101510000368DA0710B5044606D49B0700F14800BB
:1015200009D500F05BFC2368590709D51A070ED5C9
:10153000DB0613D510BD00F049FC23685907F5D42C
:1015400004F1D00000F052FC23681A07F0D404F52F
:10155000A87000F053FC2368DB06EBD404F5E870B8
:10156000BDE8104000F08EBC0920704703460068BB
:1015700000B11844704700BF704700BF70B5044603
:101580000E46316C2046FFF775FF054688B9326C70
:101590006261236932462146012098470828F0D02D
:1015A000072806D12846316CFFF7E6FF301D00F012
:1015B00001FC08F03BF800BF2DE9F0470D1DD0F805
:1015C0000C80D0F81890074614460FCDADF5727D0B
:1015D0000DF10C0CACE80F000FCDACE80F000FCDF7
:1015E000ACE80F0095E80F0002AE4FF0000E8CE85B
:1015F0000F00C6F800E020E0336C7B614FF4F0721E
:1016000031467AA8FFF73CF83B697AAA394650463A
:101610009847889B73642146CDE9006905463B469F
:101620003A460120C0470446E0B94FF4F0727AA967
:101630003046FFF725F8082D1AD1316C3846FFF7F0
:1016400019FF09345FFA84FA05460028D4D0B36B39
:1016500073643A46CDE900693B464AF01001012027
:10166000C04700B1092528460DF5727DBDE8F08719
:10167000072DF7D12046316CFFF77EFF03A800F05D
:1016800099FB00BF406C7047F0B5CB6B0B6401F168
:10169000040C0E460546BCE80F00F9B001AC0FC4BF
:1016A000BCE80F000FC4BCE80F000FC49CE80F009B
:1016B0004FF0FF3784E80F00009706E02B696A4679
:1016C000294698470828044608D110992846FFF76C
:1016D000D1FE0028F2D0092079B0F0BD6846FFF7AE
:1016E00017FF062CF7D131462846FFF747FF00BF0A
:1016F000C160D96B82611964002219465CE700BFA2
:1017000070B5C66843690B64AEB903690A460446FE
:101710000D46014602209847072805D008280FD11A
:1017200029462046FFF72AFF3046296CFFF724FFA1
:10173000281D00F03FFB0122FFF73EFF07F076FF78
:1017400007F074FFC2681AB1CA6B0A64002233E75B
:101750009AE700BF704700BF836801460BB10120C4
:1017600018477047012912D009D873B90F2A0CD82D
:1017700000EB820218465368009A136070470339E1
:10178000012994BF012002207047022070470846BB
:10179000704700BF00B585B00A46002303A9009139
:1017A0001946FFF7DFFF039805B05DF804FB00BFA3
:1017B000012912D009D873B90F2A0CD800EB820086
:1017C000009A12684260184670470339012994BF95
:1017D000012002207047022070470846704700BF72
:1017E00010B584B0002303AC039200940A46194656
:1017F000FFF7DEFF04B010BD70B5D36B136402F1C8
:10180000040C05460C46BCE80F00ADF50E7D0DF14D
:101810005C0EAEE80F00BCE80F00AEE80F00BCE8BD
:101820000F00AEE80F009CE80F004FF0FF368EE887
:101830000F00169610E0FFF7D3FF214616A8A84721
:10184000034616AA6946082083B9049B98470528D1
:1018500006460CD0092809D026996846FFF70AFEEB
:1018600003466A460C2116A8002BE4D0092616A8C8
:10187000FFF74EFE30460DF50E7D70BD2DE9F04FA1
:10188000CC6C89B01E4654F8043B06940D461746AE
:1018900000F00308002E79D01A0C1B0405938DF874
:1018A0001D200223D2B204EB82048DF81C302B6D74
:1018B000B8F1020F08BFAC6B13F001030CD005A9FF
:1018C000384600F079FB18B9082009B0BDE8F08F60
:1018D000092009B0BDE8F08FD4F800A0BAF1000FDC
:1018E000EDD0019300F008030293022E4AD0B4F821
:1018F00000A0B4F802900434AB6C29F0010B0F2166
:1019000038469B44FFF746FF834539D82AF0010348
:101910009B44834594BF002001204FEA490303F014
:1019200002030AF0010A43EA0A03012B49D0022B01
:1019300032D0002BCCD1B8F1000F02D0002840F0FB
:10194000CD800434D4F800A0BAF1000FCDD105A9A0
:10195000384600F031FB0028BAD1019B002BB3D0F0
:101960000F213846FFF716FF0E2102463846FFF7D3
:1019700037FF38466A4A0F21FFF732FF0720A8E7F2
:101980000020CAE7D4F804900834B5E71B02059399
:101990000323ADF81C308AE7236823F0004BB8F12D
:1019A000000F45D128B1029A002A5CD0BBF1000F8C
:1019B00074D0002B00DA04340BF1010B04EB8B0420
:1019C000C0E7B8F1000F19D1B0B163682268991C63
:1019D0004FEAD2723FF47CAF05F158010133049114
:1019E00000F09080201DFFF7C1FD04AB01462846A2
:1019F000AFF3008000285BD10834A3E70D213846FF
:101A0000D5F82090FFF7C6FE8145F5D1AB6A9C4220
:101A1000F2D12046FFF7E2FC0F2102463846FFF7DD
:101A2000DFFE38462A460021FFF7DAFE072050E79E
:101A30000D213846D5F82090FFF7ACFE814501D046
:101A40002368B6E7AB6A9C42FAD104230022C5E9B9
:101A50000B23E318C5F828B06B632368002B59DB10
:101A600001230193A8E705F15803CDF80C8004F198
:101A7000040AB04691461E460EE050460496FFF713
:101A800075FD0022014604AB284609F101090AF15F
:101A9000040AAFF30080E0B9D945EED10D213846F4
:101AA000FFF778FE049BAC62C5E90803062010E747
:101AB00081460D213846FFF76DFEB9F1020F28620D
:101AC00025D12B46049A43F82C2F6B62AC6206207A
:101AD000FFE646462368DDF80C806AE72046FFF7FC
:101AE0007DFC04340246AC6328461446AFF3008004
:101AF00000283FF4EDAE384622460F21FFF770FE76
:101B00000720E6E60D213846FFF744FE2862049BD5
:101B10006B62DBE70BF1010004EB80007AE700BFAA
:101B2000000000000023A9E60123A7E60223A5E6A2
:101B30002DE9F0430646C3B015461C46042900F2C1
:101B4000BF80DFE801F09E57BD2D0300002C40F060
:101B5000B780102A00F2B4800368D80600F1F9803B
:101B600020AF384600F098F9B46B394600234FF0A7
:101B7000010C0CFA03F22A42204603F1010303D0C0
:101B800050F8042B0A600446042B01F10401F0D143
:101B90003846B46300F076F9002043B0BDE8F08326
:101BA000032C40F08D8094B204EB1243102B4FEACB
:101BB000124500F2858003681F0700F1D28020AF34
:101BC000384600F03DF9B26B07EBC50154B10B4646
:101BD000D01A01EBC401E4001D5843F8045B8B42AA
:101BE000FAD122443846B26300F008F9002043B02D
:101BF000BDE8F083012C4FEA124895B25CD0052C69
:101C00005ED108EB0509B9F1200F59D8B8F10F0FD3
:101C100079D9A946002D40F08A80B36B6DB320AF0F
:101C20004FF0000907EBC807043F03EBC50553F865
:101C3000041B47F8041FAB42F9D1B9F1000F0FD0D4
:101C40006F464146102938BF102107EBC101843986
:101C500003EBC90553F8040B41F8040FAB42F9D16B
:101C6000012C00F08680B8F10F0FB56347D9B9F1A8
:101C7000000F02D0684600F0B9F8002043B0BDE87C
:101C8000F083ECB9806B23461FFA82FC0124371DD8
:101C900004FA03F212EA0C0F014604D051F8042BA7
:101CA00047F8232008460133102BF1D115F40055D5
:101CB000E3D1B063284604E008EB0503102B03D9F9
:101CC000022043B0BDE8F083B8F10F0FF8D83368B5
:101CD000DA0706D5304623F0030340F8483B00F00E
:101CE00079F820AF384600F075F8B36B002D97D126
:101CF0001D460435B563384600F068F8BDE720A8F6
:101D000000F06CF8B3E7B9F1100F40D9A9F1100950
:101D10003368D90708D523F00103304643F00203A6
:101D200040F8483B00F05EF8B9F1000F32D033685C
:101D30005A0720D4B8F10F0F25D96F463846C8F19D
:101D4000100500F057F8002DB36B7FF77AAF20AF86
:101D500068E723F01003336006F5E87000F09CF8A4
:101D6000FEE623F00803036000F5A87000F068F8B1
:101D700025E720AFBDE7304623F0040340F8D03B11
:101D800000F038F8D6E720A800F02CF8D5E74FF09F
:101D90000009BDE7B8F10F0F3FF63FAF20AF38465F
:101DA00000F020F8B36B002D7FF43AAF384600F016
:101DB00015F862E700F1340191E838009C46A64628
:101DC0004CF8045D90E8FF0FE54600BD90EC210B58
:101DD000704700BF80EC210B704700BF90EC200BD8
:101DE000704700BF80EC200B704700BFD0EC200B89
:101DF000704700BFC0EC200B704700BFF0EC020141
:101E0000F0EC0211F0EC0221F0EC0231F0EC0241B6
:101E1000F0EC0251F0EC0261F0EC0271F0EC0281A6
:101E2000F0EC0291F0EC02A1F0EC02B1F0EC02C196
:101E3000F0EC02D1F0EC02E1F0EC02F1704700BFEF
:101E4000E0EC0201E0EC0211E0EC0221E0EC0231F6
:101E5000E0EC0241E0EC0251E0EC0261E0EC0271E6
:101E6000E0EC0281E0EC0291E0EC02A1E0EC02B1D6
:101E7000E0EC02C1E0EC02D1E0EC02E1E0EC02F1C6
:101E8000704700BFB0FC0181B0FC0191B0FC01A122
:101E9000B0FC01B1704700BFA0FC0181A0FC019122
:101EA000A0FC01A1A0FC01B1704700BFEC4600B549
:101EB0002DE900502DE9FF1F4FF000032DE90C0024
:101EC00001A9FFF7E1FBDDF840E012B0704700BF69
:101ED000EC4600B52DE900502DE9FF1F4FF000033F
:101EE0002DE90C0001A9FFF70BFCDDF840E012B072
:101EF000704700BFEC4600B52DE900502DE9FF1FEB
:101F00004FF000032DE90C0001A9FFF71BFCDDF8E1
:101F100040E012B0704700BFEC4600B52DE900501C
:101F20002DE9FF1F4FF000032DE90C0001ABFFF777
:101F3000DFFBDDF840E012B0704700BFEC4600B5B3
:101F40002DE900502DE9FF1F4FF000032DE90C0093
:101F500001AAFFF751FCDDF840E012B0704700BF66
:101F6000027A03467AB9427AA2B14168013A10B4C2
:101F70004272086803220C1D1A7202025C60000E95
:101F800010BC1A6070470068013A1A7202021A60A7
:101F9000000E7047B020704700B585B0002303AA3B
:101FA000009219460C22FFF7DDFB039805B05DF89F
:101FB00004FB00BFF0E700BF2DE9F043054685B004
:101FC0000E464FF000083046FFF7CAFFB02804461F
:101FD00000F0BA80070620D500F0F003802B4DD02A
:101FE000902B36D0A02B60D0B02B74D0C02B00F03B
:101FF0008B8000F0F803D02B0BD100F007020132E8
:10200000052342F4002201212846FFF791FD002814
:10201000D9D0092005B0BDE8F0838300DBB21F1DD5
:102020000DF10C0900231946CDF800900D22284629
:10203000FFF798FB039BCDF8009060064CBFDF1BB9
:10204000FF1800230D22194628460397FFF7B0FB1F
:10205000B9E700F00D030D2BDBD003AF002300F038
:102060000F02194600972846FFF77CFB00230097D4
:102070000D2219462846FFF79BFBA4E73046FFF7E1
:102080006FFF24022043B0F5004FC2D004010023AB
:10209000A2B219462846FFF74BFD0028B9D114F427
:1020A000004F18BF4FF001088DE7C24302F007034D
:1020B0004FF47F621A41010702F47F624FF0000380
:1020C00048BF42F4804219462846FFF731FD0028F8
:1020D0003FF479AF9DE7B1283BD0B22800F0938060
:1020E000B32841D000F0FC03B42B92D000F00702DB
:1020F0000132012342F4002219462846FFF718FD59
:1021000000283FF460AF84E7C6284AD0C72854D0DF
:1021100000F0F803C02B63D0C82868D0C9287FF42A
:1021200078AF3046FFF71CFF020300F00F0002F407
:10213000702201300243012105232846FFF7F8FCF5
:1021400000283FF440AF64E7B8F1000F18D000203A
:1021500060E73046FFF704FF024600283FF459AF1E
:1021600010F0F003C8D054E73046FFF7F9FE020341
:1021700000F00F03013302F470221A430123BBE77E
:1021800003AC43460E22414600942846FFF7EAFA84
:10219000009443460F2241462846FFF709FB40467C
:1021A00038E73046FFF7DCFE020300F00F0301338F
:1021B00002F470221A4303239EE73046FFF7D0FE55
:1021C000024600283FF425AF10F0F0037FF421AF62
:1021D00004212846FFF7ACFC00283FF4F4AE18E7D2
:1021E00000F00F020132032342F4202284E730463C
:1021F000FFF7B6FE00F0F00200F00F0310320133DB
:1022000043EA023297E700230DF10C090D2219462B
:10221000CDF800902846FFF7A5FA3046FFF7A0FE5C
:1022200002064FF002040CD5039B00F07F00A04093
:10223000184403903046FFF793FE030604F10704A9
:10224000F2D4039BCDF8009000F07F02A24003F58A
:1022500001731A440023039219460D222846FFF702
:10226000A7FAB0E610B5C26C536884B04FF0030C07
:1022700008321C0208461B0E01A9019402928DF837
:102280000CC08DF80D30FFF797FE04B010BD00BFF5
:1022900008B5FFF78FFE806C08BD00BF08B5FFF7DB
:1022A00089FEC06CC379023300EB830008BD00BF18
:1022B000704700BFDFF834D00D480E490E4A0023A6
:1022C00002E0D458C4500433C4188C42F9D30B4AEA
:1022D0000B4C002301E013600432A242FBD300F058
:1022E000EFF801F03BF900F0BBF870470000022066
:1022F00000000020B8090020209E0008B809002036
:10230000740A0020FEE7000070B5002488B0CDE913
:102310000344CDE90544214B009407941A6B204DEA
:10232000204E42F080021A631A6B02F08002009283
:10233000009A01941A6B42F001021A631A6B02F0C0
:1023400001020192019A02941A6B42F002021A638E
:102350001B6B03F002030293224628464FF4004110
:10236000029B00F0E5FA22463046082100F0E0FA30
:1023700028464FF40043012503A9CDE90335CDE9F3
:10238000054400F0B5F9082303A93046CDE903352B
:10239000CDE9054400F0ACF908B070BD003802404A
:1023A000000002400004024010B54FF6FF731446CF
:1023B000024892B200F072FE204610BDD4090020FF
:1023C00030B5002395B0CDE90A33CDE90C33CDE922
:1023D0000333CDE90533204901930793086C1F4A65
:1023E00040F080500864096C01F08051019101991E
:1023F0000293136843F480431360136803F480432B
:10240000012202934FF48033CDE9082302240423F0
:1024100002984FF48001A82208A8CDE90E41CDE929
:102420001032CDE9124300F087FA08B172B6FEE728
:102430000F220346CDE903244FF4A0554FF48052F8
:1024400003A80521CDE90535079200F08DFC08B100
:1024500072B6FEE715B030BD003802400070004093
:1024600008B500F0AFF8FFF7ABFFFFF74DFF00F046
:1024700031F8064801F00EFC054B0648196801F0DA
:10248000A7FB00F08FFE00F035FFFEE77097000815
:10249000000000209097000872B6FEE7FEE700BF3C
:1024A000FEE700BFFEE700BFFEE700BFFEE700BF9C
:1024B000704700BF704700BF704700BF00F09CB876
:1024C000034AD2F8883043F47003C2F8883070476A
:1024D00000ED00E010B50B480B4C00234FF4E13148
:1024E0000C22C0E90041C0E90233C0E90432C0E96E
:1024F000063300F0A3FD00B910BDBDE81040FFF7A2
:10250000CBBF00BFD4090020004C004030B5184AB2
:10251000016889B000239142CDE90333CDE9053349
:10252000079301D009B030BD02F5F6320193116C6A
:1025300041F400211164106C00F400200190019816
:102540000293136B0B4843F001031363136B03F007
:10255000010302930324082303A90225CDE90643BE
:10256000029A0394049500F0C3F809B030BD00BF8F
:10257000004C004000000240704700BF38B50E4AD2
:102580000E4B12781B6805464FF47A70B0FBF2F0E0
:10259000B3FBF0F000F092F808B90F2D01D901203B
:1025A00038BD0446024629464FF0FF3000F048F897
:1025B000034B20461D6038BD0400002000000020B1
:1025C0000800002008B50B4B1A6842F400721A602C
:1025D0001A6842F480621A601A6842F480721A60C3
:1025E000032000F01BF80F20FFF7C8FFFFF7C4FF20
:1025F000002008BD003C0240034A044B11681B78D0
:102600000B441360704700BF180A0020040000202C
:10261000014B1868704700BF180A00200749CA68B4
:1026200003024FF6FF0003F4E0630240134343F05C
:10263000BF6343F40033CB60704700BF00ED00E0A0
:102640001C4BDB68C3F3022300B5C3F1070EBEF1D8
:10265000040F03F1040C28BF4FF0040EBCF1060F69
:102660001BD9033B4FF0FF3C0CFA03FC22EA0C029F
:102670004FF0FF3C0CFA0EFC21EA0C0199400028B7
:1026800041EA02010CDB00F16040090100F5614004
:10269000C9B280F800135DF804FB00221346E7E797
:1026A000054B00F00F0009010344C9B219765DF82B
:1026B00004FB00BF00ED00E0FCEC00E00138B0F1ED
:1026C000807F10D210B44FF0E023084C58614FF0D7
:1026D000F00C84F823C00022072110469A615DF8AF
:1026E000044B196170470120704700BF00ED00E006
:1026F0002DE9F04F00220C68DFF82CA2834E85B044
:102700001346894605E00133102B02F1020200F066
:1027100089800121994001EA040BA143F3D1D9F842
:1027200004C00CF003014D1E012D7ED9032940F099
:10273000BE809140CD4307683D4029431CF4403F93
:102740000160E0D000210391DAF8441041F48041A7
:10275000CAF84410DAF8441001F480410391039957
:1027600023F0030101F1804101F59C3103F00307DF
:10277000D1F808E0BF000F25BD402EEA0508644DE2
:10278000A84224D005F58065A84200F09480614DF0
:10279000A84200F09780604DA84200F09A805F4DFB
:1027A000A84200F09D805E4DA84200F0A0805D4DE3
:1027B000A84200F0A380DFF874E170450CBF4FF031
:1027C000070E4FF0080E0EFA07F748EA0708C1F89F
:1027D0000880B1686FEA0B071CF4801F0CBF3940FA
:1027E0004BEA0101B160F5681CF4001F0CBF3D40CD
:1027F0004BEA0505F56075681CF4003F0CBF3D40D1
:102800004BEA0505756031681CF4803F03F1010354
:102810000CBF39404BEA0101102B316002F102027A
:102820007FF477AF05B0BDE8F08FD9F80C5087681A
:1028300005FA02F8032505FA02FE27EA0E0748EA20
:102840000707876047686FEA0E0527EA0B0ECCF38F
:1028500000179F4047EA0E074760C76807EA050E62
:10286000D9F80870974047EA0E070229C76001FAB5
:1028700002F17FF460AF4FEAD30E00EB8E0E03F04F
:102880000708DEF820700097D9F810704FEA880822
:1028900007FA08F701970F2707FA08F8009F27EAB9
:1028A0000808019F47EA0807CEF8207043E7032590
:1028B0009540ED43D1E74FF0010E0EFA07F748EAD5
:1028C000070884E74FF0020E0EFA07F748EA0708F8
:1028D0007DE74FF0030E0EFA07F748EA070876E7A0
:1028E0004FF0040E0EFA07F748EA07086FE74FF0BB
:1028F000050E0EFA07F748EA070868E74FF0060EDC
:102900000EFA07F748EA070861E700BF003C0140FC
:102910000000024000080240000C0240001002408B
:10292000001402400018024000380240001C02401F
:1029300002B9090481617047002800F0A2812DE9E5
:10294000F0410368DD0782B004462FD59E498A68AE
:1029500002F00C02042A00F0ED808A6802F00C02FA
:10296000082A00F0E3806368B3F5803F00F0EC8054
:10297000B3F5A02F00F07581934D2A6822F48032C0
:102980002A602A6822F480222A60002B40F0E1802D
:10299000FFF73EFE064605E0FFF73AFE801B64287F
:1029A00000F201812B689B03F6D423689F0728D58A
:1029B000854A916811F00C0F00F09080916801F049
:1029C0000C01082900F08680E368002B00F00E81DE
:1029D0007E4B7D4E01221A60FFF71AFE054605E088
:1029E000FFF716FE401B022800F2DD8033689807CF
:1029F000F6D53368226923F0F80343EAC203336053
:102A000023681A0751D458072FD56F4A136C13F057
:102A100080537FD000256E4E3368D90540F1B380D6
:102A2000A368012B00F0C380052B00F02C81664EBB
:102A3000326F22F001023267326F22F004023267F5
:102A4000002B40F0B980FFF7E3FD41F288380746DC
:102A500005E0FFF7DDFDC01B404500F2A480336FA9
:102A60009807F6D4002D40F00681A069C8B1564DF4
:102A7000AB6803F00C03082B00F0C980534B002215
:102A800002281A6600F00981FFF7C2FD044605E03E
:102A9000FFF7BEFD001B022800F285802B689B011A
:102AA000F6D4002002B0BDE8F08163690BB3474B58
:102AB000454E0122C3F8802EFFF7AAFD054604E02B
:102AC000FFF7A6FD401B02286DD8736F9B07F7D553
:102AD000236898E7526856023FF576AF3A4A126883
:102AE000950744D5E268012A41D0012002B0BDE833
:102AF000F081364A344EC2F8803EFFF789FD054624
:102B000004E0FFF785FD401B02284CD8736F9F0738
:102B1000F7D4DDE70193136C43F080531364136C17
:102B200003F080530193019B012574E74A6850022A
:102B30007FF519AF244A126891037FF537AF6268B9
:102B4000002A7FF433AFD0E71F4A136843F4803381
:102B50001360FFF75DFD1C4E054604E0FFF758FDCE
:102B6000401B64281FD833689A03F7D51DE7164920
:102B700020690A6822F0F80242EAC0020A601A07D5
:102B80007FF541AF91E7336843F480733360FFF71B
:102B90003FFD07463368DA053FF542AFFFF738FDE2
:102BA000C01B0228F6D9032002B0BDE8F081064A16
:102BB000136F43F001031367FFF72AFD024F064628
:102BC00041F288380BE000BF003802400000474265
:102BD00000700040FFF71CFD801B4045E3D83B6FB1
:102BE0009B07F7D5002D3FF440AF44E0424A434EE7
:102BF0001360FFF70DFD054604E0FFF709FD401BDC
:102C00000228D0D833689907F7D42368F9E6012859
:102C10003FF448AF6B68E26903F4800191427FF4AE
:102C200064AF226A03F03F0191427FF45EAF616AB4
:102C300047F6C0721A40B2EB811F7FF456AFA26A0A
:102C4000520803F44031013AB1EB024F7FF44DAF2B
:102C5000E26A03F07063B3EB026F14BF012000203F
:102C600020E7264B1A6842F480221A601A6842F460
:102C700080321A606DE7214A136C23F0805313648D
:102C8000F3E6012070471D4B1A6F42F004021A67E9
:102C90001A6F42F001021A678EE7FFF7B9FC064689
:102CA00005E0FFF7B5FC801B02283FF67CAF2B68E0
:102CB0009901F6D4D4E90731626A0B4343EA8213DF
:102CC000D4E90A21520843EA0163013A0A4943EA76
:102CD000024301226B600A66FFF79AFC074D044627
:102CE00005E0FFF795FC001B02283FF65CAF2B6860
:102CF0009A01F6D5D5E600BF0000474200380240F1
:102D0000164908B58B6803F00C03042B1BD0082B65
:102D100017D14A684B68496813F4800302F03F02F8
:102D200013D10F48C1F38811A1FB0001FEF7D6F9BA
:102D30000A4B5B68C3F3014301335B00B0FBF3F064
:102D400008BD074808BD074808BD0648C1F38811FB
:102D50000023A1FB0001FEF7C1F9E9E700380240BA
:102D60000024F40000127A00002800F08780484A0E
:102D7000136803F007038B422DE9F0410D4604462A
:102D800009D2CBB21370136803F007038B4202D051
:102D90000120BDE8F0812368980714D5590704D5B0
:102DA0003C498A6842F4E0528A601A0704D53949DE
:102DB0008A6842F460428A603649A0688A6822F0D4
:102DC000F00202438A60DF0721D56268012A57D0EA
:102DD000931E012B2F4B1B684DD99907D8D52D4E2B
:102DE000B36823F003031343B360FFF711FC41F210
:102DF0008838074604E0FFF70BFCC01B404544D869
:102E0000B368626803F00C03B3EB820FF3D1204A7E
:102E1000136803F00703AB4206D9EBB213701368D3
:102E200003F00703AB42B3D123685A0706D519490B
:102E3000E0688A6822F4E05202438A601B0707D5E3
:102E4000144A2169936823F4604343EAC103936001
:102E5000FFF756FF0F4A104C92681049C2F3031255
:102E60000346A25C0E48D34000680B60FFF786FB68
:102E70000020BDE8F0819801B1D489E701207047B6
:102E8000044B1B689E03AAD482E7032081E700BF9E
:102E9000003C024000380240A897000800000020D3
:102EA00008000020044B05499B68054A0868C3F3E5
:102EB0008223D35CD84070470038024000000020D5
:102EC000B8970008044B05499B68054A0868C3F396
:102ED0004233D35CD84070470038024000000020E5
:102EE000B89700080268116938B50446C068A3683D
:102EF00021F4405101432069116103436069D168A5
:102F00000343E06921F4164121F00C0103430B4314
:102F1000D3605369A069284923F4407303438A426C
:102F2000536129D0254B9A4226D0FFF7BBFFE369B6
:102F3000B3F5004F26D16268214D92184FF0190168
:102F40004FF000035B41A0FB0101FEF7C7F8A5FBB2
:102F500000325109642303FB1103DB003233A5FB6C
:102F60000323C3F342121B09246802EB011203F48A
:102F7000F8731344A36038BDFFF7A4FFE369B3F50A
:102F8000004FD8D0636819219A00A0FB01019B0F64
:102F9000FEF7A4F80A4AA2FB00135B092168642427
:102FA00004FB130000013230A2FB00201B0103EBE5
:102FB0005010886038BD00BF00100140001401406F
:102FC0001F85EB512DE9F84380460F4691461E467A
:102FD000D8F8005001E0731C06D12C6837EA0403CE
:102FE000F9D10020BDE8F8833EB1FFF711FBA0EB5B
:102FF00009008642ECD2D8F8005005F10C0353E8E2
:10300000003F23F4D07305F10C0141E80032002A9F
:10301000F3D105F1140353E8003F23F0010305F158
:10302000140141E80032002AF3D1202388F83D3012
:1030300088F83C2088F83E300320D3E760B338B5E9
:1030400090F83D30044603F0FF0203B322682423C6
:1030500084F83D30D36823F400532046D360FFF753
:1030600041FF23681A6922F490421A615A6922F0DA
:103070002A025A61DA680025202142F40052DA60FF
:10308000256484F83D1084F83E10284638BD80F849
:103090003C20FFF73BFAD9E7012070472DE9F843C0
:1030A000044690F83D00202846D10D46002940D026
:1030B0001746002A3DD01E4694F83C30012B3BD0E9
:1030C000012384F83C304FF000092123C4F84090DC
:1030D00084F83D30FFF79CFAA368A784B3F5805FBE
:1030E000E78480462BD0E38C00229BB284F83C20FE
:1030F0007BB92DE0236815F8012B5A60B4F826C07F
:103100000CF1FF3C1FFA8CFCA4F826C0E18C89B2BC
:10311000F1B13346424680212046FFF753FFA0B964
:10312000002DE7D139F8023B2268C3F3080353604E
:10313000E4E70120BDE8F8830220BDE8F8832369B5
:10314000002BD0D1A9461D46CDE70320BDE8F8836A
:103150003346424640212046FFF734FF0028F4D191
:10316000202384F83D30E5E700207047704700BF1A
:10317000F0B5174683B082B1094E0C468D1814F88D
:1031800001CB8DF807C04FF6FF7301220DF1070147
:103190003046FFF783FFA542F1D1384603B0F0BDBA
:1031A000D409002070B582B063221B4C8DF8072033
:1031B0001A481A4E4FF6FF7301220DF10701FFF76F
:1031C0006DFF04F108054FF0310C01E014F801CF58
:1031D0008DF807C04FF6FF7301220DF1070130464D
:1031E000FFF75CFFAC42F1D10D4C0C4E04F116051B
:1031F0004FF0680C01E014F801CF8DF807C04FF6CE
:10320000FF7301220DF107013046FFF747FFA5428A
:10321000F1D102B070BD00BFC0970008D4090020F2
:10322000CC9700082DE9F043036883B080460C4634
:10323000002941D008461D68DFF8A090FDF760F92D
:103240004D4507463DD190B1224D261814F801CBCB
:103250008DF807C04FF6FF7301220DF107012846D4
:10326000FFF71CFFA642F1D1D8F800301D684D458C
:103270001AD10D200DF107018DF807004FF6FF73ED
:1032800001221448FFF70AFF0A228DF807204FF6A3
:10329000FF730DF1070101220E48FFF7FFFE022028
:1032A000384403B0BDE8F0830B4902224046A847EA
:1032B000384403B0BDE8F083DFF820901D680F4666
:1032C000D5E7024621464046A847D8F800300746D1
:1032D0001D68CCE7D4090020E4970008713100088C
:1032E000024B03490022C3E9001270471C0A002068
:1032F00000980008024B034803491860FFF792BF8B
:10330000240A00201C0A00200C98000870B50368ED
:1033100084B000249E690394102315460293CDE9DE
:1033200000446B461268B0479DF8043003F0060372
:10333000062B03BF009B2B600120204604B070BD0C
:103340000098904214BF01200620704710B5034B2F
:103350000360044600F0E6F8204610BD64980008BB
:1033600010B5054B0360044600F0DCF82046082148
:1033700000F04AF8204610BD649800082DE9F0419D
:10338000069F0899099E8F42044690461D460CD020
:103390002946204600F0CAF820B10123376086F89C
:1033A0000480B3710020BDE8F081079900F0BEF8F9
:1033B0000028EDD086F805800020BDE8F08100BF30
:1033C00038B515461C4600F0B1F800B938BD0822E2
:1033D00006232560E260237138BD00BF2DE9F0416E
:1033E000064617461D460C4600F0A0F848B9032DC6
:1033F00007D823683A46314620465B69BDE8F0416C
:103400001847BDE8F08100BF00F0A6B810B5034B27
:1034100003600446FFF79AFF204610BDC4980008D9
:1034200010B5054B03600446FFF790FF20460C21C2
:10343000FFF7EAFF204610BDC498000870B582B0BF
:103440000446069E96420D4609D0A068046806967A
:10345000246A2946A44602B0BDE870406047194678
:103460000192009300F062F8DDE900320028ECD010
:10347000062002B070BD00BF2DE9F04F0C4681B0B0
:103480001946DDE90A69DDE90C879B460546924647
:1034900000F04CF880B9464525D0A868214604685C
:1034A000CDE90C87CDE90A69E4695B465246A4463A
:1034B00001B0BDE8F04F6047002C3E6087F804A0E3
:1034C0000CDB3444A0450CBF4FF006084FF0010858
:1034D00087F80680002001B0BDE8F08F0234F9D1F2
:1034E0000123BB71F6E74946284600F01FF8002883
:1034F000D3D087F805A0EDE72DE9F04106460F4649
:1035000014461D46FFF75CFF48B9B06801682246C3
:103510008C692B463946A446BDE8F0416047BDE8BA
:10352000F08100BF704700BF00207047814211D07A
:1035300008B5406803782A2B0AD049680B782A2BF3
:1035400008BF0131FCF760FEB0FA80F0400908BD09
:10355000002008BD0120704700F024B870B50D4E62
:103560000D4D761BB61006D0002455F8043B0134EF
:103570009847A642F9D1094E094D761B06F0ECF8A2
:10358000B61006D0002455F8043B01349847A642F3
:10359000F9D170BD109E0008109E00081C9E000806
:1035A000109E0008024B0146186803F007BC00BFDC
:1035B0000C0000202DE9F04F01F10B06162E83B010
:1035C000044624D8102900F2BA8000F0F5FA10263B
:1035D00018220220B54F3A44A2F1080153688B42E9
:1035E00000F0BA805A68D96822F003021A449D6834
:1035F000E9608D60516841F001012046516003F19E
:10360000080500F0DFFA284603B0BDE8F08F36F079
:10361000070600F19480B14200F2918000F0CCFAEC
:10362000B6F5FC7FC0F09A81730A00F08F80042BFE
:1036300000F26F81B30903F1390003F1380CC300C4
:103640009A4F3B44A3F108055B689D4206D10CE00C
:10365000002980F22781DB689D4206D05A6822F05B
:103660000302911B0F29F3DD60463D69DFF850C26C
:1036700065457CD06A6822F00302931B0F2B00F390
:103680007B81002BC7E904CC80F26C81B2F5007F0E
:1036900080F01A81D308796801334FEA521E012263
:1036A00002FA0EF20A4357F833E0C5F808E007EBD8
:1036B000C3010839E9607A6047F83350CEF80C50FE
:1036C000831001219940914257D8114206D120F030
:1036D00003004900114200F10400FAD007EBC009D1
:1036E0004D468646D5F80C80454508D11DE1002B96
:1036F00080F22481D8F80C80454500F01681D8F876
:10370000042022F00302931B0F2BF0DD2046D8E9A2
:10371000025408EB060146F00106C8F80460EC60AC
:10372000A56043F00104C7E90411C1E902CC4C6073
:1037300048F8023000F046FA08F1080502E00C23D0
:1037400023600025284603B0BDE8F08F4FF40073D6
:1037500040204FF03F0C73E7D3689A4208BF023015
:103760007FF440AF3D69DFF858C1654582D17A6882
:103770008310012199409142A7D9BD686B6823F05D
:1037800003094E4503D8A9EB06030F2B7ADCDFF8BB
:1037900034B1474BDBF800201B680132334405EBA2
:1037A000090A00F0338103F580530F3323F47F6857
:1037B00028F00F084146204600F074FA411C0246EA
:1037C00000F0F380824500F2EE803A4B19684144E4
:1037D0001960084600F04E81DBF8001001930131BA
:1037E0001BBFA2EB0A0A5044CBF80020186012F06D
:1037F000070B00F01781CBF108010A44CBF580518B
:1038000090440831A1EB0801C1F30B0A5146204650
:10381000009200F047FA421CDDE9002300F04F81DE
:10382000801A00EB0A081968BA6048F00100514498
:10383000BD425060196000F02981B9F10F0F40F2CC
:1038400027816868A9F10C0C2CF0070C00F001002E
:1038500040EA0C0068604FF0050E05EB0C00BCF16F
:103860000F0FC0E901EE00F2328150681546124B8D
:103870001A688A4238BF1960104B1A688A4238BFEA
:10388000196094E0AA1943F0010346F001066E6046
:103890002046BA60536000F095F90835284603B019
:1038A000BDE8F08FD9681A44A1E600BF38040020B3
:1038B000580A0020280A0020500A0020540A00203C
:1038C0004004002040080020B2F5206F4FEA522348
:1038D00063D3142B00F2B78003F15C01C9005B33A2
:1038E00007EB010E7958AEF1080E8E4500F091807D
:1038F0004B6823F00303934202D989688E45F7D1C0
:10390000D1F80CE07A68C5E9021ECEF80850CD6007
:10391000D6E6142B59D9542B00F29D80330B03F1BA
:103920006F0003F16E0CC3008AE60EF1010E1EF06B
:10393000030F05F108057FF4D5AE51E0424445463A
:103940005368D8F80C1043F00103536055F8083F52
:103950002046D9608B6000F035F9F3E6F00806F1F7
:10396000080237E62A442046536843F001035360B7
:10397000083500F027F9E5E6A919204646F00106CA
:1039800043F001046E60C7E90411C1E902CC4C6048
:10399000AB5000F017F90835D4E6930903F139016B
:1039A000C90038339CE7BD425FD0BD68686820F02D
:1039B00003084645A8EB060302D80F2B3FF762AF7A
:1039C000204600F0FFF80025BCE603F15C0003F19F
:1039D0005B0CC30034E659F808394B4540F096803B
:1039E00010F0030F00F1FF30F5D17B6823EA0103EB
:1039F0007B60490099423FF6C0AE19B9BDE6490067
:103A00000EF1040E1942FAD0704667E603F1100871
:103A1000D0E69A104FF001087B6808FA02F21A43C8
:103A20007A6070E702EB08014942C1F30B0A514684
:103A30002046009200F036F9431CDDE900237FF4B4
:103A4000EFAEDA46EFE6542B25D8130B03F16F01E6
:103A5000C9006E3344E7B3F5AA7F25D8F30B03F111
:103A6000780003F1770CC300EAE5294B186840445D
:103A70001860B1E6CAF30B0CBCF1000F7FF4ACAEDA
:103A8000BD68C84448F001006860F0E61546EEE6FF
:103A90000123536094E7B3F5AA7F23D8D30B03F136
:103AA0007801C90077331BE740F25452934223D880
:103AB000B30C03F17D0003F17C0CC300C0E5ABF156
:103AC000080BD844A8EB02084FF0000AABE605F15A
:103AD00008012046009303F071F9BD68009B6868F7
:103AE0001968C4E640F254518B420BD8930C03F191
:103AF0007D01C9007C33F3E64FF47E737F204FF0E5
:103B00007E0C9DE54FF47E717E23E9E67B6870E7CD
:103B1000280A0020830730B548D0541E002A3FD021
:103B2000CAB2034601E0013C3AD303F8012B9D07DA
:103B3000F9D1032C2DD9CDB245EA05250F2C45EA44
:103B4000054536D9A4F1100222F00F0C03F1200E26
:103B5000E6444FEA121C03F1100242E9045542E91F
:103B6000025510327245F8D10CF1010214F00C0F1D
:103B700003EB021204F00F0C13D0ACF1040323F09A
:103B800003030433134442F8045B9342FBD10CF06B
:103B900003042CB1CAB21C4403F8012B9C42FBD194
:103BA00030BD64461346002CF4D1F9E703461446B1
:103BB000BFE71A46A446E0E7014803F0A9BB00BFEF
:103BC000600A0020014803F0A5BB00BF600A002086
:103BD0000FB400B5074983B004AB086853F8042B51
:103BE0008168019300F070F803B05DF804EB04B055
:103BF000704700BF0C00002070B5054688B008462D
:103C00000C46FCF77DFC224EAA6B0590012143185F
:103C1000CDE9066104A8022104940393AC680190E5
:103C2000029122B3636E13F0010FB4F90C309AB213
:103C300001D1980525D5910406D4626E43F4005352
:103C400022F40052A3816266284601AA214603F0AD
:103C5000BBF9636E002814BF4FF0FF350A25DA0761
:103C600002D4A3899B0506D5284608B070BD284616
:103C700002F0ACFFD6E7A06D03F04CFB284608B07D
:103C800070BDA06D03F044FBB4F90C309AB2D2E7DA
:103C900004990008024B01461868FFF7ADBF00BF4A
:103CA0000C00002038B5074D0022044608462A6063
:103CB00005F042FD431C00D038BD2B68002BFBD023
:103CC000236038BD6C0A00202DE9F04F2DED0A8BE2
:103CD000CFB01C460AEE101A91460AEE900A05462D
:103CE00003F00EFB0368139318460994FCF708FCD5
:103CF00012901DB1AB6B002B00F048821AEE102A17
:103D0000536EDB0740F14781B2F90C309AB296044A
:103D100009D41AEE101A43F400538B819AB24B6EF9
:103D200023F400534B66150740F1CC801AEE103A8D
:103D30001B69002B00F0C68002F01A030A2B00F06A
:103D4000D2804D469FED9C7B2B78002425AACDE99F
:103D50002344CDE91544CDE917448DED107B1AEECF
:103D6000909A0E942292904614940694002B00F0A0
:103D7000B081AB4604E01BF8013F002B00F0CD8082
:103D8000252BF8D1BBEB050640F0CB809BF800302B
:103D9000002B00F09E8100234FF0FF329BF8017052
:103DA0008DF86B3005930BF1010B04929A462B248E
:103DB00020210BF1010BA7F120035A2B00F2008107
:103DC000DFE813F00A03FE00FE000503FE00FE001C
:103DD000FE006A00FE00FE0076029E02FE008102E6
:103DE000A802FE00A3025B005B005B005B005B00BF
:103DF0005B005B005B005B00FE00FE00FE00FE005F
:103E0000FE00FE00FE008E01FE001602ED018E0196
:103E10008E018E01FE00FE00FE00FE000003FE008B
:103E2000FE004502FE00FE00FE002002FE00C2026F
:103E3000FE00FE009907FE00FE00FE00FE00FE00F0
:103E4000FE00FE00FE008E01FE001602EF018E0154
:103E50008E018E01E602EF01E801FE00F302FE0092
:103E600086024702D402E801FE0020027D007507A9
:103E7000FE00FE007907FE007D00A7F1300300225E
:103E80001BF8017B02EB820203EB4202A7F1300335
:103E9000092BF5D905928EE7484603F031FA4368BD
:103EA00017931846FCF72CFB18900646484603F07B
:103EB00027FA836815932021002E40F0E9869BF8AD
:103EC000007076E71AEE101A1AEE900A1AEE105ADF
:103ED00001F002FD002841F02783AA8902F01A03AD
:103EE0000A2B7FF42EAF1AEE101AB1F90E30002B08
:103EF000FFF627AF4B6ED90702D4920541F15A81E4
:103F00001AEE101A1AEE900A23464A464FB0BDEC3C
:103F10000A8BBDE8F04F01F09FBCBBEB050600F03B
:103F2000D880249B33442493239B0133072BC8E977
:103F30000056239305DC08F10808069B33440693DA
:103F400024E71AEE101A22AA484604F05FF990B945
:103F50000DF19408F1E71AEE101A22AA484604F06F
:103F600055F9002800F0A680089B23B11AEE900AAC
:103F7000194602F023FF1AEE102A536ED80740F1BB
:103F8000FA8093895A0601F1D88206984FB0BDECA9
:103F90000A8BBDE8F08FB2F90C309F059AB23FF55D
:103FA000B6AE1AEE105AA86D03F0B2F9B5F90C309E
:103FB0009AB2ACE6AFF30080000000000000000001
:103FC000002F00F0868000238DF8D4708DF86B30C0
:103FD0000122CDE90723039204930C930F930D93D1
:103FE00035AD1AF002020A9202D0039A023203920D
:103FF0001AF084020B9205D1059A0399561A002EE5
:1040000000F36883249C8BB1239B0DF16B02013379
:104010000134C8F80020072B4FF0010224942393A9
:10402000C8F8042000F39F8308F108080A9B83B1B5
:10403000239B1BAA01330234C8F80020072B4FF042
:10404000020224942393C8F8042000F3998308F112
:1040500008080B9B802B00F06A82049B079A9E1A2B
:10406000002E00F3AB821AF4807F40F00682079B9B
:10407000C8F804301C44239BC8F800500133072BB8
:104080002494239300F3198308F108081AF0040F0D
:1040900005D0059B039A9D1A002D00F38583DDE969
:1040A000052303998A42ACBF9B185B180693002C2A
:1040B0007FF451AF00232393089B1BB10899484616
:1040C00002F07CFE0DF194085D462B78002B7FF406
:1040D00050AE249B002B41F01B82002323934AE720
:1040E000099B073323F00703B3EC027B8DED107BB4
:1040F000DDE91012099322F000430BEE101A0BEECB
:10410000903A4FF0FF32B0EE4B9AF0EE6B9AB74B0D
:1041100051EC190BFCF7A4FF002840F0E884B34BE6
:1041200051EC190B4FF0FF32FCF77CFF002840F0F8
:10413000DE84DDE9100100220023FCF769FF00287E
:1041400040F067879DF86B30A94DAA4A2AF0800A93
:104150000321472FC8BF15460022089203910791FB
:1041600004920C920F920D92002B3FF43AAF039AF7
:104170000132039235E7938999053FF503AF1AEEB3
:10418000104A906D03F0C6F8A389FBE6284602F0BA
:104190001DFDB3E59BF800704AF0200A09E64AF0DD
:1041A000100A1AF0200F099B00F04084073323F017
:1041B00007031A465B6852F8084B09921E46002B0B
:1041C000C0F24384049B013300F0BC822AF08003D8
:1041D000039354EA060340F0B782049B002B40F09F
:1041E000B882DDF80CA00023049307934EAD1FE1C5
:1041F000099A002352F8041B8DF86B308DF8D41007
:104200000992E5E6099C54F8045B00268DF86B6082
:10421000002D00F08F85049B5A1C00F051861A4631
:1042200031462846FCF7DCF90890002801F02F8180
:10423000089B0496591B079121EAE1719DF86B30A8
:104240000994039108960C960F960D968CE74AF008
:10425000100A1AF0200600F0C983099B073323F0E7
:1042600007035E6853F8084B09932AF480630393AD
:10427000002300228DF86B20049A551C00F0C080AA
:10428000039921F0800A54EA060140F0B780002A21
:1042900040F00786002BA6D1039B13F00103079380
:1042A00000F0148430238DF837310DF23715BFE05C
:1042B000099B53F8042B0592002A80F2D583059AB6
:1042C0000993524205929BF800704AF0040A70E587
:1042D0001AF0200F40F0D1841AF0100F40F0E7855B
:1042E0001AF0400F40F0A9861AF4007F00F0DF8535
:1042F000099B069953F8042B099311705D46E4E677
:104300009BF800708DF86B4053E59BF800704AF005
:10431000800A4EE55A4612F8017B2A2F01F06F827F
:10432000A7F13003092B934698BF002201F2EC80DD
:104330001BF8017B02EB820203EB4202A7F1300380
:10434000092BF5D9049236E54AF010030393039B39
:1043500013F0200600F05983099B073323F007036D
:104360005E6853F8084B0993012382E7099B53F8D1
:10437000044B099330234AF0020278278DF86C3001
:104380001D4B149303928DF86D700026022370E785
:104390009BF80070682F03BF9BF801704AF4007A05
:1043A0000BF1010B4AF0400A03E59BF800706C2FFB
:1043B00003BF9BF801704AF0200A0BF1010B4AF091
:1043C000100AF6E49BF800704AF0080AF1E49BF842
:1043D00000704AF0010AECE49DF86B30002B7FF48A
:1043E0006EAD9BF800708DF86B10E2E4FFFFEF7F7D
:1043F000089900080C99000818990008CDF80CA03D
:10440000012B00F0A181022B4EAD20D1149A04F0B3
:104410000F032409D35C05F8013D44EA067436090C
:1044200054EA0603F3D14EAB5B1BDDF80CA00793F7
:10443000049907989DF86B3081424FF00002B8BF95
:104440000146089203910C920F920D928CE604F0B3
:104450000703E40844EA4674F608303354EA0601D8
:104460002A4605F8013DF2D10399CC0700F1758287
:104470004EAB5B1B8A460793DAE7652F40F3D78084
:10448000DDE9100100220023FCF7B8FD002800F050
:10449000C681239BC14AC8F80020013301340122A0
:1044A000072B24942393C8F8042000F3DE8408F13A
:1044B00008081C9B0E9A934280F2D182129B139A99
:1044C0001C44C8E90023239B24940133072B239326
:1044D00000F3228408F108080E9B5D1E002D7FF773
:1044E000D5AD102D239B41F36981AD4F0A9722462C
:1044F00010261AEE104A05E008F10808103D102DAC
:1045000040F3C18401331032072BC8E90076CDE9AE
:104510002332F1DD22AA2146484603F077FE002827
:104520007FF422ADDDE923320DF19408E6E7059B27
:10453000039A9E1A002E7FF790AD102E239B41F315
:104540003F8097490B9522461AEE105A0A910C4665
:1045500004E0103E102E08F1080819DD0133103276
:104560001021072BCDE92332C8F80040C8F8041009
:10457000EFDD22AA294648460DF1940803F046FED5
:1045800000287FF4F1AC103E102EDDE92332E5DC8B
:104590000B9D144601330A9AC8F800203444072BB7
:1045A000CDE92334C8F8046000F3A883049B079A7C
:1045B0009E1A002E08F108087FF755AD102E239B98
:1045C00040F30F8576480A90424621461AEE108A3B
:1045D000044604E0103E102E02F1080216DD0133FD
:1045E00010311020072BCDE9233114605060F1DD2C
:1045F00022AA4146484603F009FE00287FF4B4ACE5
:10460000103E102EDDE9233125AAE8DC90460C4649
:1046100001330A9AC8F800203444072BCDE923342B
:10462000C8F8046000F3D48108F108081BE50E9B6C
:10463000012B40F37381239EC8F8005001360134EA
:104640000123072E24942396C8F8043000F39683A0
:1046500008F10808129B139A01361C44072EC8E97A
:104660000023CDE9236400F3978308F10808DDE90E
:10467000100100220023FCF7C1FC002840F07B81E0
:104680000E9B0136013B01351C44072EC8F8005033
:104690002396C8F80430249400F3518108F10808E7
:1046A000169BC8F8043001361C44072E1EABCDE91A
:1046B0002364C8F800307FF7E7AC1AEE101A22AA7C
:1046C000484603F0A3FD00287FF44EAC249C0DF176
:1046D0009408DBE4102EDDE9233222DD1995102445
:1046E0001AEE105A04E0103E102E08F1080817DDEB
:1046F00001332C491032072BC8E90014CDE92332CD
:10470000F1DD22AA294648460DF1940803F07EFD0A
:1047100000287FF429AC103E102EDDE92332E7DCBF
:10472000199DC8F804600133B418072B1D4AC8F856
:104730000020CDE9233400F37D839DF86B3008F130
:10474000080860E4CDF80CA00A2C76F1000380F094
:10475000318330340123DDF80CA08DF83741079305
:104760000DF2371564E61AEE101A22AA484603F035
:104770004DFD00287FF4F8AB249C0DF1940855E41E
:104780001AEE101A22AA484603F040FD00287FF4D2
:10479000EBAB249C0DF194085BE400BF4899000842
:1047A0005C9900084C990008102D239B20DD1AEE1F
:1047B000107A102604E0103D102D08F1080817DDCE
:1047C0000133AC4A1034072BC8E90026CDE9233465
:1047D000F1DD22AA394648460DF1940803F016FD92
:1047E00000287FF4C1AB103D102DDDE92334E7DC58
:1047F0000133A04AC8F804502C44072BCDE92334D8
:10480000C8F800207FF74BAC1AEE101A22AA4846CF
:1048100003F0FCFC00287FF4A7AB249C3FE41C9A27
:10482000002A40F32B81DDE90D739F42A8BF1F468C
:10483000002F0BDD239B01333C44072BC8E90057B5
:104840002494239300F3D58508F108080D9E002FCA
:10485000A8BFF61B002E00F344830D9B1AF4806F53
:104860002B44079340F0E3841C9B0E9A934203DB96
:104870001AF0010F00F0D283129A13991444C8E978
:104880000012239A24940132072A239200F3BF8551
:1048900008F108080E9A0799AE18761AD51AAE4292
:1048A000A8BF2E46002E0DDD239BC8F80010013353
:1048B0003444072BC8F804602494239300F309863A
:1048C00008F10808002EA8BFAD1B002D7FF7DEAB56
:1048D000102D239B40F37287674F0A9722461026BC
:1048E0001AEE104A05E008F10808103D102D40F3BB
:1048F000CA8201331032072BC8E90076CDE9233292
:10490000F1DD22AA2146484603F080FC00287FF40E
:104910002BABDDE923320DF19408E6E71AF0010F25
:104920007FF489AE239EC8F800500136013401237C
:10493000072E24942396C8F804307FF7AFAE1AEE02
:10494000101A22AA484603F061FC00287FF40CAB41
:10495000DDE923640DF19408A2E6302B3FF463AD4A
:104960003023023A05F8013C4EAB9B1ADDF80CA04F
:10497000079315465CE50E9B5D1E002D7FF790AEFC
:10498000102D40F321873C4ACDF810A023461AEEA3
:1049900010AA0A921027144605E008F10808103DF5
:1049A000102D40F3E38201361033072EC8E900478B
:1049B000CDE92363F1DD22AA5146484603F026FCE7
:1049C00000287FF4D1AADDE923630DF19408E6E71E
:1049D0001AEE101A22AA484603F018FC00287FF4A9
:1049E000C3AA249C0DF19408FFF73DBB1AF01003F5
:1049F00040F03D811AF0400200F0C882099A52F856
:104A0000044B09921E46A4B22FE4039B13F010033B
:104A100066D1039A12F0400200F0C682099A52F859
:104A2000044B09921E46A4B2012322E453F8044B1E
:104A300009931AF0100F4FD11AF0400F48D044F3E9
:104A4000C036334624B2FFF7BABB2D2364428DF83B
:104A50006B3066EB4606CDF80CA001230CE41AF08F
:104A6000010F3FF413AB29E59BF800700993FFF7A2
:104A7000A0B900BF4C9900085C990008239BB64977
:104A8000C8F80010013301340121072B249423932B
:104A9000C8F8041000F3848408F10808002A40F0E4
:104AA00046820E9A0AF0010313433FF4EFAA129BC9
:104AB000139A1C44C8E90023239B24940133072B39
:104AC000239300F3688308F1080841E24EADAFE498
:104AD0001AF4007F40F0AB82E6173346FFF76FBB56
:104AE000099B53F8044B09930123FFF7C2BBDDE98F
:104AF000100102460B46FCF7B3FA002840F02E8660
:104B0000612F00F07F85412F00F0A082049B0133CC
:104B100027F02003039300F0C085472B00F0AB85FE
:104B2000DDE910014AF48072002907924FF000037A
:104B3000C0F2458441EC180B0A930893039B462B63
:104B400000F07484452B00F02585B0EE480AF0EEA5
:104B5000680A20AB01931DAB0093049A1CAB0221A1
:104B6000484600F0C9FF039B472B054640F05E8690
:104B70001AF0010F5646DDF81CA040F0E384209B9C
:104B80005B1B0E93039B472B00F01B83039B462B61
:104B900000F089841C9B0D930D9B039A013B412AD5
:104BA0001C9300F0E985FAB20021002BB8BF0D9BE1
:104BB0008DF87820BABFC3F101032D222B22092BD7
:104BC0008DF8792040F36D850DF18704DFF898C1E9
:104BD000224610468CFB0321DA17C2EBA10202EB3E
:104BE0008201A3EB4101303100F8011C1946632911
:104BF000134600F1FF32ECDC3033D9B2831E9C4205
:104C000002F8011C40F20E8613460DF17A0201E013
:104C100013F8011B02F8011B9C42F9D10DF1890325
:104C20000DF17A021B1A13441EAA9B1A16930E9BAF
:104C3000169A012B1A44079240F3B285079B129AE9
:104C400013440793079A002326F4806622EAE2724F
:104C500046F4807A0C9303920F930D930A9B002BDA
:104C600040F0DE8204939DF86B30FFF77DBA099B1C
:104C700053F8044B0993FFF7F8BA099B069853F8C9
:104C8000041B0993C217C1E900025D46FFF71DBA74
:104C9000159B002B3FF413A9159B1B78002B3FF4A9
:104CA0000EA99BF800704AF4806AFFF782B8CDF82D
:104CB0000CA0FFF74CBB294B14931AF0200655D0DB
:104CC000099B073323F007035E6853F8084B0993E9
:104CD0001AF0010F09D054EA060306D030238DF8EC
:104CE0006D704AF0020A8DF86C302AF480630393E9
:104CF0000223FFF7BEBA1A4B1493DEE71AEE101A1E
:104D000022AA484603F082FA00287FF42DA9249CA9
:104D10000DF19408FFF7A1B91AEE101A22AA48461D
:104D200003F074FA00287FF41FA9249C0DF1940865
:104D3000FFF7D2BB049A0895062A294628BF062207
:104D400004952B460392074D099407920C910F91FD
:104D50000D91FFF709BA00BF48990008189900089B
:104D60002C99000840990008676666661AF01003DF
:104D700070D0099B53F8044B0993A9E71AEE101A57
:104D800022AA484603F042FA00287FF4EDA8DDE9A4
:104D900023640DF194085DE41AEE101A22AA484625
:104DA00003F034FA00287FF4DFA8DDE923640DF175
:104DB00094085CE4039B002203F48063CDE9077848
:104DC00009EE109A0DF59C7ADDF854901746984636
:104DD0000CE00023204631460A22FCF77FF90A2C1A
:104DE00076F100031CD304460E46AA4620460A224A
:104DF00000233146FCF772F930320AF1FF350137F2
:104E00000AF8012CB8F1000FE3D099F800309F4266
:104E1000DFD1FF2FDDD00A2C76F1000380F0E58092
:104E2000CDF854900E97DDF82080079F19EE109A68
:104E3000FFF7F9BA1AEE101A22AA484603F0E6F96B
:104E400000287FF491A89DF86B30249C0DF1940804
:104E5000FFF7D9B81AF0400200F0B680099A52F86C
:104E6000044B09921E46A4B232E71AEE101A22AA87
:104E7000484603F0CBF900287FF476A8249C0DF176
:104E80009408FFF716BB144601330A9AC8F80020AD
:104E90002C44072BC8F80450CDE923347FF7F4A83D
:104EA0000BE4012BCDF80CA07FF4ADAA51E4099BD3
:104EB000069953F8042B5D4611600993FFF705B975
:104EC000284604960994FBF71BFB20EAE0719DF845
:104ED0006B300790039108960C960F960D96FFF78E
:104EE00043B9102E239B40F39684BC480A90424657
:104EF00021461AEE108A1027044604E00832103EBC
:104F0000102E40F33B8201331031072BC2E90047DA
:104F1000CDE92331F2DD22AA4146484603F076F975
:104F200000287FF421A8DDE9233125AAE7E7129BB9
:104F300013991C44C8E90013239B24940133072BC5
:104F4000239300F3288108F10808002AC0F2FD82AB
:104F50000E9AC8F8005001331444072BCDE92334CE
:104F6000C8F804207FF790A8FFF7A7BBDDF810A0D2
:104F70001C4601360A9BC8F800302C44072ECDE9A8
:104F80002364C8F804507FF789ABD8E4099B1AF46E
:104F9000007614BF53F8044B53F8044B09931CBF1D
:104FA0001646E4B2FFF761B9039B13F40076099B40
:104FB00014BF53F8044B53F8044B09931CBF164617
:104FC000E4B20123FFF755B9099B1AF4007614BF28
:104FD00053F8044B53F8044B09931CBF1646E4B234
:104FE00076E67E4A0A92FFF713BB189B1799ED1AD3
:104FF0001A46284603F09CF899F801300BB109F1E4
:105000000109204631460A2200230027FCF766F8F2
:10501000E9E62D238DF86B30FFF796B80E9A0799C5
:10502000AE18761AD51AAE42A8BF2E464AE444F30B
:10503000C016334664B2FFF7C2B8099B069953F80D
:10504000042B099311805D46FFF73FB830238DF89C
:105050006C3058238DF86D30049B632B4AF00204AA
:1050600000F3D5820023089335ADDDE910124AF430
:1050700081730793002A27F02003A2460393C0F20E
:105080009F81002342EC181B0A93612F00F04A8392
:10509000412F7FF453ADB0EE480AF0EE680A1CA829
:1050A00002F0CAFF00224FF07F5351EC100BFBF7C8
:1050B0003DFD02460B4643EC192B00220023FBF773
:1050C0009DFF08B101231C93454B0B93049B19953D
:1050D000CDE90C7BCDE90EA80CEE109ADDF82CB0D2
:1050E00059EC198B5E1E2C4605E000220023013E80
:1050F000FBF784FFE0B93B4B002240464946FBF7F3
:1051000015FD89468046FBF7C1FF0546FBF7A4FC69
:105110000B46024649464046FBF750FB1BF805305C
:10512000A24604F8013B731C374680468946DCD111
:1051300049EC198B2C4BDDF83C8051EC190B00220B
:105140003E461CEE109ADDE90C7BCDF830A00D95A3
:10515000DDF838A0199DFBF779FF002840F0368272
:1051600051EC190B204B0022FBF748FF18B10D9BA7
:10517000D90700F12B82002E334606DB013323448E
:10518000302204F8012BA342FBD1631B56460E9339
:10519000DDF81CA0F6E41AEE101A22AA484603F025
:1051A00035F800287EF4E0AEDDE923341C9A0DF1D9
:1051B0009408CAE61AEE103A986D02F0ABF8FEF7C2
:1051C0009FBE1C9B0D93DA1C02DB049A93420DDDFB
:1051D000023F27F020030393DEE400BF5C99000840
:1051E0002C990008000030400000E03FDDE90D325E
:1051F0009342C0F27F81F00740F19182129A1344EA
:105200000793710503D50D9B002B00F35A82079B72
:1052100023EAE3730393672700230C930F931DE5A1
:105220002D2300228DF86B300492FEF7A0BF0E9B59
:10523000CDF828B0DDF83CB0079E159FCDF81CA036
:10524000EB1804934246DDF860A00C9B0B951AEE18
:10525000108AA446BBF1000F30D0002B71D1013F62
:105260000BF1FF3B179BC2E9003A239B0133D44467
:10527000072BCDF890C0239367DC0832049B387865
:105280009B1B8342A8BF0346002B1C460BDD2398C3
:1052900001309C440728C2E90063CDF890C02390F8
:1052A0005FDC38780832002CACBF051B0546002DAA
:1052B00017DC06440C9BBBF1000FCED1002B40D174
:1052C0000B9D0E9BDDF81CA0DDF828B01597EB18A0
:1052D0009E429046324628BF1A4664460792FFF720
:1052E000C3BA102D23981FDD1024634604E0103D3F
:1052F000102D02F1080216DD0130B34910330728E2
:10530000C2E90014CDE92303F1DD22AA4146484653
:1053100002F07CFF00287EF427AE103D102DDDE961
:10532000230325AAE8DC9C460130A74B5560AC441A
:105330000728CDE9230C13604DDC38780832064489
:10534000B8E70C9B013B0C938CE722AA41464846E8
:1053500002F05CFF00287EF407AEDDF890C025AABD
:105360008CE722AA4146484602F050FF00287EF40E
:10537000FBAD3878DDF890C025AA94E790460C463E
:1053800001330A9AC8F800203444072BCDE92334AE
:10539000C8F8046000F3618108F10808FFF75DBAFE
:1053A0001AEE101A22AA484602F030FF00287EF4B6
:1053B000DBAD1C9A249C0DF19408FFF76FBB08939A
:1053C000DDE9103408EE103A04F1004308EE903A9B
:1053D0002D230A9359E622AA4146484602F016FFB9
:1053E00000287EF4C1AD3878DDF890C025AA0644C7
:1053F00060E71AEE101A22AA484602F007FF0028BA
:105400007EF4B2AD249C0DF19408FFF71FBA1AEE9A
:10541000101A22AA484602F0F9FE00287EF4A4AD34
:105420001C9B249C0DF19408FFF734BA20AB019328
:105430001DAB0093049AB0EE480AF0EE680A1CAB6C
:105440000321484600F058FB0378302B054600F056
:1054500099811C9B049A56461344DDF81CA0EC1855
:1054600051EC180B00220023FBF7C8FD10B12346B6
:10547000FFF786BB209BA342BFF482AB30215A1CAE
:1054800020921970209B9C42F9D8FFF779BB049BAE
:105490000393079309949DF86B3004900C900F9040
:1054A0000D90FEF761BE1C9A0D92002A40F3908188
:1054B000049906F001030B4340F02B810D9B0793E9
:1054C0006627730500F1FE80079B23EAE3730393CD
:1054D000A2E61AEE101A22AA484602F097FE002809
:1054E0007EF442AD1C9D0E9B249C5D1B0DF1940827
:1054F000FFF7E8B90E9B129A9A180D9B0792002BA2
:1055000040F353816727DCE700230493FEF753BC85
:105510001AEE101A1AEE900A22AA02F077FE00285C
:105520003EF4DBADFEF727BD6B6EDC0705D4AB891F
:10553000980502D4A86D01F0EDFE4FF0FF330693FD
:10554000FEF723BD049BEC188AE75642103280F226
:105550006F811D480A90424621461AEE108A102794
:10556000044603E00832103E102E5ADD013310319C
:10557000072BC2E90047CDE92331F3DD22AA4146DA
:10558000484602F043FE00287EF4EEACDDE923310C
:1055900025AAE8E7049BB0EE480AF0EE680A5C1C16
:1055A00020AB01931DAB009322461CAB0221484661
:1055B00000F0A2FA054656462C44DDF81CA04FE741
:1055C000014A0A92FEF7E6BF5C9900080C9B209303
:1055D0000B9B14F8012CD97B8A42234609D1302039
:1055E00003F8010C209B5A1E209213F8012C9142C3
:1055F000F6D0392A0BBF0B9A0132927AD2B203F855
:10560000012CC2E530238DF86C30782322E5591C3B
:105610004846FDF7CFFF0546002800F00C810890B2
:1056200023E590460C4601330A9AC8F8002034441A
:10563000072BCDE92334C8F804607FF744AA1AEE9B
:10564000101A22AA484602F0E1FD00287EF48CAC34
:10565000DDE923340DF194087AE41AEE101A22AA37
:10566000484602F0D3FD00287EF47EAC249C0DF168
:105670009408FFF7F2B8049B002B08BF01230493A2
:10568000119B4AF48072002B0792C0F29B809DED23
:10569000108B0A900890FFF758BA06230493FFF77F
:1056A0003FBA002940F0A88030228DF87A200DF111
:1056B0007B02303302F8013B1EABD31A1693FFF77F
:1056C000B6BA672715990B78FF2B00F0A780002446
:1056D0000D9A204603E001300131FF2B08D09342A0
:1056E00006DAD21A4B78002BF5D10B780134F4E7A7
:1056F00015910D920F900C940C9A0F9B18991344CE
:10570000079A01FB0323079323EAE3730393FFF74D
:10571000A5BA129BD318194407916627D1E60D9BB1
:1057200007936EE51CA8B0EE480AF0EE680A02F096
:1057300083FC00224FF07F5351EC100BFBF7F6F97E
:1057400002460B4643EC192B00220023FBF756FCC4
:1057500008B101231C933C4B0B93B7E4119B3B4DC9
:105760003B4A002BB6BF2D239DF86B308DF86B3074
:105770002AF0800AFEF7ECBC07F10F02D2B2012139
:10578000FFF713BA51EC180B00220023FBF736FC8D
:1057900000287FF45EAE049BC3F101031C9359E61D
:1057A000F4077FF54FAAFFF749BAC3F101031A4482
:1057B00022EAE2730792039367272DE5254A0A92AE
:1057C000FFF762BB0890FBE5224B0A93FFF7D1BBC2
:1057D000049A06F0010656EA020304D1012303935A
:1057E0006627079318E5129B01331A4422EAE273F5
:1057F0000792039366270FE50DF17A0259E7099B9B
:105800009BF80170934653F8042B099342EAE27225
:105810000492FEF7CEBA0F4A0A92B1E500230C9328
:105820000F9369E702231693FFF701BA049CC2E6BF
:10583000084A0A92F7E61AEE102A938943F04003C9
:105840009381FEF798BB00BF1899000810990008D3
:10585000149900085C99000870B50C468989ADF56B
:105860008E6D21F00201ADF81410616E1B91E1897B
:10587000ADF81610E1690991616A0B911CA90291BA
:1058800006914FF4806106460491079118A8002103
:10589000CDE90032089101F037FDDDE9003202A9BF
:1058A0003046FEF711FA051E07DB02A9304601F06B
:1058B00059F9002818BF4FF0FF35BDF814305B06CA
:1058C00003D5A38943F04003A381189801F01EFD7E
:1058D00028460DF58E6D70BD38B5334B1B680546F7
:1058E0000C460BB19A6B12B3B4F90C3018079AB28C
:1058F00025D5216900292DD012F0010007D0002004
:10590000A06060694042A06139B1002038BD9507B0
:1059100058BF6069A0600029F7D1120658BF084639
:10592000F4D543F04003A3814FF0FF3038BD184653
:1059300001F04CF9B4F90C3018079AB2D9D4D10659
:105940002AD5520714D4216943F00803A3819AB2DF
:105950000029D1D102F42070B0F5007FCCD02146CF
:10596000284601F0D9FCB4F90C3021699AB2C3E79A
:10597000216B51B104F14002914204D0284601F05C
:105980001DFAB4F90C300022226321690022C4E917
:10599000001223F02403D7E7092243F040032A60D2
:1059A0004FF0FF30A38138BD0C000020024B13B133
:1059B000024800F005B8704700000000F16C0008D4
:1059C000002301461A46184603F080BB2DE9F04F2C
:1059D00003690C69A34283B0C0F28780013C01F1E6
:1059E0001405A30000F11408009355F8243058F86A
:1059F0002420013381469A4208EB840005EB84079A
:105A00000190B2FBF3F63BD30023AE4640469B46E3
:105A10005EF804AB02681FFA8AFC06FB0C334FEAFF
:105A2000134C4FEA1A4A06FB0ACA1FFA83FCABEB77
:105A30000C0C1FFA8AF31CFA82FCC3EB124202EB35
:105A40002C421FFA8CFC4CEA0243774540F8043B99
:105A50004FEA224B4FEA1A43DAD2009B58F8033040
:105A600073B9019B043B984504D307E0984504F1C2
:105A7000FF3403D253F80429002AF7D0C9F81040A4
:105A8000484601F0BDFF00282BDB013640460023CD
:105A900055F8041BD0F800C08AB29A1A0B0C12FAFF
:105AA0008CF2C3EB1C4303EB224392B242EA034263
:105AB000AF4240F8042B4FEA2343E9D258F82420A0
:105AC00008EB84036AB9043B984504D307E0984582
:105AD00004F1FF3403D253F80429002AF7D0C9F89F
:105AE0001040304603B0BDE8F08F002003B0BDE8A1
:105AF000F08F00BF000000002DE9F04F2DED068B68
:105B000095B08DED020B0191016C249D099259EC29
